:107800000C94343C0C94513C0C94513C0C94513CE1
:107810000C94513C0C94513C0C94513C0C94513CB4
:107820000C94513C0C94513C0C94513C0C94513CA4
:107830000C94513C0C94513C0C94513C0C94513C94
:107840000C94513C0C94513C0C94513C0C94513C84
:107850000C94513C0C94513C0C94513C0C94513C74
:107860000C94513C0C94513C11241FBECFEFD8E036
:10787000DEBFCDBF11E0A0E0B1E0E2E0FEE702C074
:1078800005900D92A230B107D9F722E0A2E0B1E055
:1078900001C01D92AD30B207E1F70E94043D0C9487
:1078A000FF3E0C94003C9091C00095FFFCCF80936C
:1078B000C6000895CF93C82F8595859585958595A4
:1078C000805DCF70CA303CF0C95A0E94533C8C2F67
:1078D000CF910C94533CC05DF8CFCF92DF92EF92E2
:1078E000FF92C12CD12C76018091C00087FF07C088
:1078F0008091C600FF90EF90DF90CF9008958FEFBA
:10790000C81AD80AE80AF80A81E0C81684E2D8063C
:1079100084EFE806F10440F3E0910201F0910301E5
:107920000995E2CFCF930E946D3CC82F0E94533C33
:10793000C13624F0C7558C2FCF910895C033DCF3A6
:10794000C053F9CFCF930E94923CC82F0E94923C23
:10795000C295C07F8C0FCF910895CF93C82FC1508F
:1079600010F4CF9108950E946D3CF9CFCF93C82FAA
:107970000E946D3C803251F484E10E94533C8C2F74
:107980000E94533C80E1CF910C94533C80910401C0
:107990008F5F80930401853031F4E0910201F09112
:1079A0000301CF910994CF9108950E946D3C8032DC
:1079B00031F484E10E94533C80E10C94533C80916B
:1079C00004018F5F80930401853029F4E091020166
:1079D000F091030109940895815008F408955A9A8A
:1079E0002FEF31EE94E0215030409040E1F700C09D
:1079F00000005A982FEF31EE94E021503040904033
:107A0000E1F700C00000E8CF54985C9A53985B9A65
:107A1000529A50E4C52E5BE4D52E5CE4E52EF12CA1
:107A20005A9A4C9B06C05A98E0910201F0910301CA
:107A300009954B9B06C05A98E0910201F091030111
:107A4000099581E0C81AD108E108F10849F75A9868
:107A50004C9BFECF4B9BFCCF0000F0E0E0E0E491BC
:107A600080E18093C4001092C50088E18093C1003A
:107A700086E08093C2005098589A529A8AE00E94F9
:107A8000EC3C5A9AFF24F3940E946D3C803319F425
:107A90000E94D53CF9CF8133F1F40E946D3C8032D5
:107AA00009F09FC184E10E94533C81E40E94533C51
:107AB00086E50E94533C82E50E94533C80E20E948E
:107AC000533C89E40E94533C83E50E94533C80E58B
:107AD0000E94533C4CC1803439F40E946D3C86387E
:107AE000B8F20E946D3CD4CF8134A1F40E946D3C69
:107AF000803821F482E00E94B63CC6CF813811F470
:107B000081E0F9CF823811F480E1F5CF8839B9F5F9
:107B100083E0F1CF823421F484E10E94AD3CB8CF00
:107B2000853411F485E0F9CF982F9D7F903509F4C5
:107B3000AFCF813509F4ACCF853549F40E946D3C57
:107B4000809306010E946D3C80930701A1CF86358A
:107B5000C1F40E946D3C803379F40E946D3C0E9418
:107B60006D3C182F0E946D3C8EE1112321F285E9B6
:107B7000113009F28FE0BFCF83E00E94AD3C80E07E
:107B8000BACF843609F0C4C00E946D3C80930902CC
:107B90000E946D3C8093080280910C028E7F80933E
:107BA0000C020E946D3C853429F480910C028160A6
:107BB00080930C0208E011E0209108023091090244
:107BC000C801885091408217930708F10E946D3CCC
:107BD000803209F006C12091060130910701220F81
:107BE000331F80910C0280FF2EC030930701209339
:107BF0000601E8E0F1E02091080230910902CF018E
:107C0000885091408217930740F084E161CF0E9431
:107C10006D3CF80181938F01CFCFF999FECF809110
:107C200006019091070192BD81BD819180BDFA9AB4
:107C3000F99A8091060190910701019690930701AE
:107C400080930601D8CF80910701880F880B8F2180
:107C500080930B0230930701209306018091080264
:107C600080FF09C0809108029091090201969093CB
:107C7000090280930802F894F999FECF1127E09148
:107C80000601F0910701C8E0D1E0809108029091CF
:107C90000902103091F40091570001700130D9F3BE
:107CA00003E000935700E895009157000170013000
:107CB000D9F301E100935700E895099019900091DC
:107CC000570001700130D9F301E000935700E895A7
:107CD0001395103498F0112700915700017001306E
:107CE000D9F305E000935700E89500915700017023
:107CF0000130D9F301E100935700E89532960297DD
:107D000009F0C7CF103011F00296E5CF11247DCFD6
:107D1000843709F052C00E946D3C809309020E9492
:107D20006D3C809308028091060190910701880FB5
:107D3000991F90930701809306010E946D3C9091DA
:107D40000C028534C1F4916090930C020E946D3C4A
:107D5000803209F099CE84E10E94533C10E000E0AB
:107D600080910802909109020817190730F080E10C
:107D70000E94533C89CE9E7FE7CF80910C02E09118
:107D80000601F091070180FF14C0F999FECFF2BD02
:107D9000E1BDF89A80B50E94533C80910601909114
:107DA0000701019690930701809306010F5F1F4F13
:107DB000D7CF81FDF2CF8491EECF853779F40E9441
:107DC0006D3C803271F484E10E94533C8EE10E944C
:107DD000533C85E90E94533C8FE07ACE863709F404
:107DE000CECE809104018F5F80930401853009F02D
:107DF0004BCEE0910201F0910301099545CEF89434
:027E0000FFCFB2
:027E02008000FE
:040000030000780081
:00000001FF
